:1000000000308A00612900000A108A100A11820754
:1000100028340C3401340634703084008313000813
:10002000031920280130F800F701F70B1528F80B09
:1000300014284A30F700F70B1B281E28800B1228C3
:1000400000347C182528081226280816FC182A28AF
:1000500088122B2888167C192F2808133028081797
:10006000FC1934288813352888170000081538280B
:1000700008110034FD010030081A0130FD04003081
:10008000881A0130F7000310F70D7708FD040030DF
:10009000081B0130F700F70DF70DFC30F705770866
:1000A000FD040030881B0130F700F70DF70DF70D48
:1000B000F830F7057708FD047D08F80000340810D3
:1000C00083160816881608178817831288140000EC
:1000D000081500003A207808FC00081100000815F7
:1000E00000003A207808F6000811831608128812DA
:1000F000081388137C0EF700F030F70577087604B4
:10010000F8007808F600F61B6128F408031D8C2817
:10011000831208108E28831683120814000088109A
:1001200000000811750EF6000F30F6057608FC0089
:10013000212075080F39F600FC00212000348316B9
:1001400008128812081388130811081088108312E7
:100150000810881008110F30F0000C200130EC005E
:100160006C08033C031CBC280330FC002120053034
:10017000F0000C20EC0AB0280230FC002120EC0139
:100180006C08033C031CCD286C080420ED00F4012E
:100190006D08F5005F20EC0AC0288A110A12E829D0
:1001A000710BD428F201E8287108023C031DDB28FA
:1001B0004030F200E8287108033C031DE2281430A7
:1001C000F200E8287108043C031DE8285430F200CE
:1001D00001307002F20772088038F300F4017308EE
:1001E000F5005F2000346F080C3A0319FE28063A28
:1001F00003190629023A03190C291129F4010130C7
:10020000F5005F200230F0000C2017290130F000CB
:100210000230F100D0201729F4011030F5005F20E2
:1002200017290130F4006F08F5005F20172900340A
:10023000EB016B081D3C031C4E290130EA006A08E3
:100240000E3C031C4529851D23296A08F000013056
:10025000F100D0206B086A07FF3E203E8400831324
:100260000008EE00EF00F3206A08F0000230F10011
:10027000D0206B086A07FF3E453E840083130008C8
:10028000EE00EF00F320EA0A1F290430EC00FA30F8
:10029000F0000C20EC0B4729EB0A19290230EC0086
:1002A000FA30F0000C20EC0B50298519552902304A
:1002B000EC00FA30F0000C20EC0B59298A110A12DC
:1002C000EC29840183131F308305831603178711DC
:1002D0000C3003139900E2309800D030831298005C
:1002E000831603170908C039890003131F129F12D0
:1002F00000300317880083128701880189012030AC
:100300000313A000A100A200A300A400A500A60062
:10031000A700A800A900AA00AB00AC005030AD00B7
:100320006830AE006130AF006D30B0002030B100F9
:100330004830B2006130B3002030B4004E30B50018
:100340006130B6006D30B7002030B800B900BA0097
:10035000BB00BC00BD00BE00BF00C000C100C200A9
:10036000C300C401C500C600C700C800C900CA0058
:10037000CB00CC00CD00CE00CF00D000D100D20009
:100380003130D3003730D4002D30D5003030D60096
:100390003230D7002D30D8003230D9003030DA007A
:1003A000DB00DC002030DD00DE00DF00E000E100EB
:1003B000E200E300E400E500E600E700E800E90110
:1003C000FF308316850000308600880083129F2846
:0C03D00086018519EC291829E929630031
:04400E00F22CFF3F52
:00000001FF
;PIC16F887
